{
    "contractName": "BallotTest",
    "abi": [
        {
            "constant": true,
            "inputs": [],
            "name": "checkWinninProposalWithReturnValue",
            "outputs": [
                {
                    "name": "",
                    "type": "bool"
                }
            ],
            "payable": false,
            "stateMutability": "view",
            "type": "function"
        },
        {
            "constant": false,
            "inputs": [],
            "name": "beforeAll",
            "outputs": [],
            "payable": false,
            "stateMutability": "nonpayable",
            "type": "function"
        },
        {
            "constant": false,
            "inputs": [],
            "name": "checkWinningProposal",
            "outputs": [],
            "payable": false,
            "stateMutability": "nonpayable",
            "type": "function"
        }
    ],
    "bytecode": "608060405234801561001057600080fd5b50610bf1806100206000396000f3fe6080604052600436106100565763ffffffff7c01000000000000000000000000000000000000000000000000000000006000350416633439c57b811461005b5780637fea0d4b14610084578063ed2bee101461009b575b600080fd5b34801561006757600080fd5b506100706100b0565b604080519115158252519081900360200190f35b34801561009057600080fd5b5061009961014d565b005b3480156100a757600080fd5b50610099610248565b600154604080517f609ff1bd000000000000000000000000000000000000000000000000000000008152905160009273ffffffffffffffffffffffffffffffffffffffff169163609ff1bd916004808301926020929190829003018186803b15801561011b57600080fd5b505afa15801561012f573d6000803e3d6000fd5b505050506040513d602081101561014557600080fd5b505115905090565b600080546001810182558180527f63616e64696461746531000000000000000000000000000000000000000000007f290decd9548b62a8d60345a988386fc84ba6bc95484008f6362f93160ef3e563909101556101a86102d4565b6020808252825490820181905281906040820190849080156101e957602002820191906000526020600020905b8154815260200190600101908083116101d5575b505092505050604051809103906000f08015801561020b573d6000803e3d6000fd5b506001805473ffffffffffffffffffffffffffffffffffffffff191673ffffffffffffffffffffffffffffffffffffffff92909216919091179055565b600154604080517f0121b93f000000000000000000000000000000000000000000000000000000008152600060048201819052915173ffffffffffffffffffffffffffffffffffffffff90931692630121b93f9260248084019391929182900301818387803b1580156102ba57600080fd5b505af11580156102ce573d6000803e3d6000fd5b50505050565b6040516108e1806102e58339019056fe608060405234801561001057600080fd5b506040516108e13803806108e18339810180604052602081101561003357600080fd5b81019080805164010000000081111561004b57600080fd5b8201602081018481111561005e57600080fd5b815185602082028301116401000000008211171561007b57600080fd5b505060008054600160a060020a0319163317808255600160a060020a031681526001602081905260408220559093509150505b8151811015610111576002604080519081016040528084848151811015156100d257fe5b602090810290910181015182526000918101829052835460018181018655948352918190208351600290930201918255919091015190820155016100ae565b50506107bf806101226000396000f3fe60806040526004361061008d5763ffffffff7c01000000000000000000000000000000000000000000000000000000006000350416630121b93f8114610092578063013cf08b146100be5780632e4176cf146101015780635c19a95c14610132578063609ff1bd146101655780639e7b8d611461018c578063a3ec138d146101bf578063e2ba53f014610220575b600080fd5b34801561009e57600080fd5b506100bc600480360360208110156100b557600080fd5b5035610235565b005b3480156100ca57600080fd5b506100e8600480360360208110156100e157600080fd5b5035610340565b6040805192835260208301919091528051918290030190f35b34801561010d57600080fd5b5061011661036c565b60408051600160a060020a039092168252519081900360200190f35b34801561013e57600080fd5b506100bc6004803603602081101561015557600080fd5b5035600160a060020a031661037b565b34801561017157600080fd5b5061017a61058b565b60408051918252519081900360200190f35b34801561019857600080fd5b506100bc600480360360208110156101af57600080fd5b5035600160a060020a03166105f5565b3480156101cb57600080fd5b506101f2600480360360208110156101e257600080fd5b5035600160a060020a0316610732565b604080519485529215156020850152600160a060020a03909116838301526060830152519081900360800190f35b34801561022c57600080fd5b5061017a610766565b3360009081526001602052604090208054151561029c576040805160e560020a62461bcd02815260206004820152601460248201527f486173206e6f20726967687420746f20766f7465000000000000000000000000604482015290519081900360640190fd5b600181015460ff16156102f9576040805160e560020a62461bcd02815260206004820152600e60248201527f416c726561647920766f7465642e000000000000000000000000000000000000604482015290519081900360640190fd5b6001818101805460ff191690911790556002808201839055815481549091908490811061032257fe5b60009182526020909120600160029092020101805490910190555050565b600280548290811061034e57fe5b60009182526020909120600290910201805460019091015490915082565b600054600160a060020a031681565b3360009081526001602081905260409091209081015460ff16156103e9576040805160e560020a62461bcd02815260206004820152601260248201527f596f7520616c726561647920766f7465642e0000000000000000000000000000604482015290519081900360640190fd5b600160a060020a03821633141561044a576040805160e560020a62461bcd02815260206004820152601e60248201527f53656c662d64656c65676174696f6e20697320646973616c6c6f7765642e0000604482015290519081900360640190fd5b600160a060020a0382811660009081526001602081905260409091200154610100900416156104f757600160a060020a0391821660009081526001602081905260409091200154610100900490911690338214156104f2576040805160e560020a62461bcd02815260206004820152601960248201527f466f756e64206c6f6f7020696e2064656c65676174696f6e2e00000000000000604482015290519081900360640190fd5b61044a565b6001818101805460ff1916821774ffffffffffffffffffffffffffffffffffffffff001916610100600160a060020a0386169081029190911790915560009081526020829052604090209081015460ff161561057e5781546002828101548154811061055f57fe5b6000918252602090912060016002909202010180549091019055610586565b815481540181555b505050565b600080805b6002548110156105f057816002828154811015156105aa57fe5b90600052602060002090600202016001015411156105e85760028054829081106105d057fe5b90600052602060002090600202016001015491508092505b600101610590565b505090565b600054600160a060020a0316331461067d576040805160e560020a62461bcd02815260206004820152602860248201527f4f6e6c79206368616972706572736f6e2063616e20676976652072696768742060448201527f746f20766f74652e000000000000000000000000000000000000000000000000606482015290519081900360840190fd5b600160a060020a0381166000908152600160208190526040909120015460ff16156106f2576040805160e560020a62461bcd02815260206004820152601860248201527f54686520766f74657220616c726561647920766f7465642e0000000000000000604482015290519081900360640190fd5b600160a060020a0381166000908152600160205260409020541561071557600080fd5b600160a060020a0316600090815260016020819052604090912055565b600160208190526000918252604090912080549181015460029091015460ff8216916101009004600160a060020a03169084565b6000600261077261058b565b8154811061077c57fe5b90600052602060002090600202016000015490509056fea165627a7a7230582089a688300d4ea734cc7ac05e36e7e24f5cbc184e688cbbc96952c5fcefe42d2f0029a165627a7a72305820be851c28cedce33802261bb92cc77b90d678e7ab63dcc6f1503ee096a1cf75950029",
    "sourcePath": "e:/projects/crypto/tests/4_Ballot_test.sol",
    "compiler": {
        "name": "solc",
        "version": "0.5.0+commit.1d4f565a"
    },
    "functionHashes": {
        "beforeAll()": "7fea0d4b",
        "checkWinninProposalWithReturnValue()": "3439c57b",
        "checkWinningProposal()": "ed2bee10"
    },
    "gasEstimates": {
        "creation": {
            "codeDepositCost": "611400",
            "executionCost": "645",
            "totalCost": "612045"
        },
        "external": {
            "beforeAll()": "infinite",
            "checkWinninProposalWithReturnValue()": "infinite",
            "checkWinningProposal()": "infinite"
        }
    }
}